{
  "contractName": "CertificateList",
  "abi": [
    {
      "inputs": [],
      "payable": false,
      "stateMutability": "nonpayable",
      "type": "constructor"
    },
    {
      "constant": true,
      "inputs": [],
      "name": "certificateCount",
      "outputs": [
        {
          "internalType": "uint256",
          "name": "",
          "type": "uint256"
        }
      ],
      "payable": false,
      "stateMutability": "view",
      "type": "function"
    },
    {
      "constant": true,
      "inputs": [
        {
          "internalType": "uint256",
          "name": "",
          "type": "uint256"
        }
      ],
      "name": "certificates",
      "outputs": [
        {
          "internalType": "string",
          "name": "name",
          "type": "string"
        },
        {
          "internalType": "string",
          "name": "branch",
          "type": "string"
        },
        {
          "internalType": "string",
          "name": "grade",
          "type": "string"
        },
        {
          "internalType": "string",
          "name": "college",
          "type": "string"
        }
      ],
      "payable": false,
      "stateMutability": "view",
      "type": "function"
    },
    {
      "constant": false,
      "inputs": [
        {
          "internalType": "string",
          "name": "_name",
          "type": "string"
        },
        {
          "internalType": "string",
          "name": "_branch",
          "type": "string"
        },
        {
          "internalType": "string",
          "name": "_college",
          "type": "string"
        },
        {
          "internalType": "string",
          "name": "_grade",
          "type": "string"
        }
      ],
      "name": "createCertificate",
      "outputs": [],
      "payable": false,
      "stateMutability": "nonpayable",
      "type": "function"
    }
  ],
  "bytecode": "0x608060405234801561001057600080fd5b50600180546001600160a01b03191633179055604080518082018252600a81526948656973656e6265726760b01b60208083019190915282516060810190935260228084526100bc9391610b0890830139604051806060016040528060268152602001610ae26026913960408051808201909152601c81527f466972737420436c61737320576974682044697374696e6374696f6e0000000060208201526001600160e01b036100c116565b610251565b6001546001600160a01b03163314610112576040805162461bcd60e51b815260206004820152600f60248201526e2737ba1030baba3437b934bd32b21760891b604482015290519081900360640190fd5b600080546001018082556040805160808101825287815260208082018890528183018690526060820187905292845260028352922082518051919261015c928492909101906101b6565b50602082810151805161017592600185019201906101b6565b50604082015180516101919160028401916020909101906101b6565b50606082015180516101ad9160038401916020909101906101b6565b50505050505050565b828054600181600116156101000203166002900490600052602060002090601f016020900481019282601f106101f757805160ff1916838001178555610224565b82800160010185558215610224579182015b82811115610224578251825591602001919060010190610209565b50610230929150610234565b5090565b61024e91905b80821115610230576000815560010161023a565b90565b610882806102606000396000f3fe608060405234801561001057600080fd5b50600436106100415760003560e01c80632a2d8fa71461004657806352d7b89c1461027b578063663b3e2214610295575b600080fd5b6102796004803603608081101561005c57600080fd5b810190602081018135600160201b81111561007657600080fd5b82018360208201111561008857600080fd5b803590602001918460018302840111600160201b831117156100a957600080fd5b91908080601f0160208091040260200160405190810160405280939291908181526020018383808284376000920191909152509295949360208101935035915050600160201b8111156100fb57600080fd5b82018360208201111561010d57600080fd5b803590602001918460018302840111600160201b8311171561012e57600080fd5b91908080601f0160208091040260200160405190810160405280939291908181526020018383808284376000920191909152509295949360208101935035915050600160201b81111561018057600080fd5b82018360208201111561019257600080fd5b803590602001918460018302840111600160201b831117156101b357600080fd5b91908080601f0160208091040260200160405190810160405280939291908181526020018383808284376000920191909152509295949360208101935035915050600160201b81111561020557600080fd5b82018360208201111561021757600080fd5b803590602001918460018302840111600160201b8311171561023857600080fd5b91908080601f01602080910402602001604051908101604052809392919081815260200183838082843760009201919091525092955061045c945050505050565b005b610283610551565b60408051918252519081900360200190f35b6102b2600480360360208110156102ab57600080fd5b5035610557565b6040518080602001806020018060200180602001858103855289818151815260200191508051906020019080838360005b838110156102fb5781810151838201526020016102e3565b50505050905090810190601f1680156103285780820380516001836020036101000a031916815260200191505b5085810384528851815288516020918201918a019080838360005b8381101561035b578181015183820152602001610343565b50505050905090810190601f1680156103885780820380516001836020036101000a031916815260200191505b50858103835287518152875160209182019189019080838360005b838110156103bb5781810151838201526020016103a3565b50505050905090810190601f1680156103e85780820380516001836020036101000a031916815260200191505b50858103825286518152865160209182019188019080838360005b8381101561041b578181015183820152602001610403565b50505050905090810190601f1680156104485780820380516001836020036101000a031916815260200191505b509850505050505050505060405180910390f35b6001546001600160a01b031633146104ad576040805162461bcd60e51b815260206004820152600f60248201526e2737ba1030baba3437b934bd32b21760891b604482015290519081900360640190fd5b60008054600101808255604080516080810182528781526020808201889052818301869052606082018790529284526002835292208251805191926104f7928492909101906107b2565b50602082810151805161051092600185019201906107b2565b506040820151805161052c9160028401916020909101906107b2565b50606082015180516105489160038401916020909101906107b2565b50505050505050565b60005481565b600260208181526000928352604092839020805484516001821615610100026000190190911693909304601f81018390048302840183019094528383529283918301828280156105e85780601f106105bd576101008083540402835291602001916105e8565b820191906000526020600020905b8154815290600101906020018083116105cb57829003601f168201915b505050505090806001018054600181600116156101000203166002900480601f0160208091040260200160405190810160405280929190818152602001828054600181600116156101000203166002900480156106865780601f1061065b57610100808354040283529160200191610686565b820191906000526020600020905b81548152906001019060200180831161066957829003601f168201915b50505060028085018054604080516020601f60001961010060018716150201909416959095049283018590048502810185019091528181529596959450909250908301828280156107185780601f106106ed57610100808354040283529160200191610718565b820191906000526020600020905b8154815290600101906020018083116106fb57829003601f168201915b5050505060038301805460408051602060026001851615610100026000190190941693909304601f81018490048402820184019092528181529495949350908301828280156107a85780601f1061077d576101008083540402835291602001916107a8565b820191906000526020600020905b81548152906001019060200180831161078b57829003601f168201915b5050505050905084565b828054600181600116156101000203166002900490600052602060002090601f016020900481019282601f106107f357805160ff1916838001178555610820565b82800160010185558215610820579182015b82811115610820578251825591602001919060010190610805565b5061082c929150610830565b5090565b61084a91905b8082111561082c5760008155600101610836565b9056fea265627a7a723158208fa3b16dd8160bca2d13038c24bd71c96bc4325028978e716e38fe48510a6a5f64736f6c634300051000324b6f6e6b6f6e204779616e7069746820436f6c6c656765204f6620456e67696e656572696e6742616368656c6f72206f66204d656368616e6963616c20456e67696e656572696e67",
  "source": "pragma solidity ^0.5.0;\n\ncontract CertificateList {\n    uint public certificateCount;\n    address owner;\n\n    constructor() public {\n        owner = msg.sender;\n        //default\n        createCertificate(\"Heisenberg\", \"Bachelor of Mechanical Engineering\",\n                                \"Konkon Gyanpith College Of Engineering\", \"First Class With Distinction\"); //Default\n    }\n\n    modifier _ownerOnly() {\n      require(msg.sender == owner, \"Not authorized.\");\n      _;\n    }\n\n    struct Data {\n        string name;\n        string branch;\n        string grade;\n        string college;\n    }\n\n    mapping(uint => Data) public certificates;\n\n    function createCertificate\n    (string memory _name, string memory _branch, string memory _college, string memory _grade)\n    public\n    _ownerOnly\n    {\n        certificateCount++;\n        certificates[certificateCount] = Data(_name, _branch, _grade, _college);\n    }\n}",
  "sourcePath": "/home/prasad_nijsure/blockchain-app/contracts/CertificateList.sol",
  "compiler": {
    "name": "solc",
    "version": "0.5.16+commit.9c3226ce.Emscripten.clang"
  },
  "schemaVersion": "3.2.0",
  "updatedAt": "2020-06-22T13:29:58.666Z",
  "networkType": "ethereum",
  "devdoc": {
    "methods": {}
  },
  "userdoc": {
    "methods": {}
  }
}